{"abi":[{"type":"constructor","inputs":[],"stateMutability":"nonpayable"},{"type":"function","name":"destruct","inputs":[],"outputs":[],"stateMutability":"nonpayable"}],"bytecode":{"object":"0x6080604052348015600f57600080fd5b5060848061001e6000396000f3fe6080604052348015600f57600080fd5b506004361060285760003560e01c80632b68b9c614602d575b600080fd5b60336035565b005b3073ffffffffffffffffffffffffffffffffffffffff16fffea2646970667358221220774fe4e5970df97edb37d383e99200f32699fcc27150716482af0bd3dd4340bc64736f6c634300080d0033","linkReferences":{}},"methodIdentifiers":{"destruct()":"2b68b9c6"},"id":16}